{"contracts/CappedResaleTicket.sol":{"CappedResaleTicket":{"abi":[{"inputs":[{"internalType":"string","name":"name_","type":"string"},{"internalType":"string","name":"symbol_","type":"string"},{"internalType":"uint256","name":"faceValue_","type":"uint256"},{"internalType":"uint256","name":"eventStart_","type":"uint256"},{"internalType":"uint256","name":"cooldownSec_","type":"uint256"},{"internalType":"uint256","name":"blockBeforeStartSec_","type":"uint256"}],"stateMutability":"nonpayable","type":"constructor"},{"inputs":[{"internalType":"address","name":"sender","type":"address"},{"internalType":"uint256","name":"tokenId","type":"uint256"},{"internalType":"address","name":"owner","type":"address"}],"name":"ERC721IncorrectOwner","type":"error"},{"inputs":[{"internalType":"address","name":"operator","type":"address"},{"internalType":"uint256","name":"tokenId","type":"uint256"}],"name":"ERC721InsufficientApproval","type":"error"},{"inputs":[{"internalType":"address","name":"approver","type":"address"}],"name":"ERC721InvalidApprover","type":"error"},{"inputs":[{"internalType":"address","name":"operator","type":"address"}],"name":"ERC721InvalidOperator","type":"error"},{"inputs":[{"internalType":"address","name":"owner","type":"address"}],"name":"ERC721InvalidOwner","type":"error"},{"inputs":[{"internalType":"address","name":"receiver","type":"address"}],"name":"ERC721InvalidReceiver","type":"error"},{"inputs":[{"internalType":"address","name":"sender","type":"address"}],"name":"ERC721InvalidSender","type":"error"},{"inputs":[{"internalType":"uint256","name":"tokenId","type":"uint256"}],"name":"ERC721NonexistentToken","type":"error"},{"inputs":[],"name":"EnforcedPause","type":"error"},{"inputs":[],"name":"ExpectedPause","type":"error"},{"inputs":[{"internalType":"address","name":"owner","type":"address"}],"name":"OwnableInvalidOwner","type":"error"},{"inputs":[{"internalType":"address","name":"account","type":"address"}],"name":"OwnableUnauthorizedAccount","type":"error"},{"anonymous":false,"inputs":[{"indexed":true,"internalType":"address","name":"owner","type":"address"},{"indexed":true,"internalType":"address","name":"approved","type":"address"},{"indexed":true,"internalType":"uint256","name":"tokenId","type":"uint256"}],"name":"Approval","type":"event"},{"anonymous":false,"inputs":[{"indexed":true,"internalType":"address","name":"owner","type":"address"},{"indexed":true,"internalType":"address","name":"operator","type":"address"},{"indexed":false,"internalType":"bool","name":"approved","type":"bool"}],"name":"ApprovalForAll","type":"event"},{"anonymous":false,"inputs":[{"indexed":true,"internalType":"address","name":"user","type":"address"},{"indexed":false,"internalType":"bool","name":"allowed","type":"bool"}],"name":"KYCUpdated","type":"event"},{"anonymous":false,"inputs":[{"indexed":true,"internalType":"address","name":"previousOwner","type":"address"},{"indexed":true,"internalType":"address","name":"newOwner","type":"address"}],"name":"OwnershipTransferred","type":"event"},{"anonymous":false,"inputs":[{"indexed":false,"internalType":"address","name":"account","type":"address"}],"name":"Paused","type":"event"},{"anonymous":false,"inputs":[{"indexed":true,"internalType":"address","name":"from","type":"address"},{"indexed":true,"internalType":"address","name":"to","type":"address"},{"indexed":true,"internalType":"uint256","name":"tokenId","type":"uint256"}],"name":"Transfer","type":"event"},{"anonymous":false,"inputs":[{"indexed":false,"internalType":"address","name":"account","type":"address"}],"name":"Unpaused","type":"event"},{"inputs":[{"internalType":"address","name":"","type":"address"}],"name":"allowedKYC","outputs":[{"internalType":"bool","name":"","type":"bool"}],"stateMutability":"view","type":"function"},{"inputs":[{"internalType":"address","name":"to","type":"address"},{"internalType":"uint256","name":"tokenId","type":"uint256"}],"name":"approve","outputs":[],"stateMutability":"nonpayable","type":"function"},{"inputs":[{"internalType":"address","name":"owner","type":"address"}],"name":"balanceOf","outputs":[{"internalType":"uint256","name":"","type":"uint256"}],"stateMutability":"view","type":"function"},{"inputs":[{"internalType":"address[]","name":"users","type":"address[]"},{"internalType":"bool","name":"ok","type":"bool"}],"name":"batchSetKYC","outputs":[],"stateMutability":"nonpayable","type":"function"},{"inputs":[],"name":"blockBeforeStartSec","outputs":[{"internalType":"uint256","name":"","type":"uint256"}],"stateMutability":"view","type":"function"},{"inputs":[],"name":"cooldownSec","outputs":[{"internalType":"uint256","name":"","type":"uint256"}],"stateMutability":"view","type":"function"},{"inputs":[],"name":"eventStart","outputs":[{"internalType":"uint256","name":"","type":"uint256"}],"stateMutability":"view","type":"function"},{"inputs":[],"name":"faceValue","outputs":[{"internalType":"uint256","name":"","type":"uint256"}],"stateMutability":"view","type":"function"},{"inputs":[{"internalType":"uint256","name":"tokenId","type":"uint256"}],"name":"getApproved","outputs":[{"internalType":"address","name":"","type":"address"}],"stateMutability":"view","type":"function"},{"inputs":[{"internalType":"address","name":"owner","type":"address"},{"internalType":"address","name":"operator","type":"address"}],"name":"isApprovedForAll","outputs":[{"internalType":"bool","name":"","type":"bool"}],"stateMutability":"view","type":"function"},{"inputs":[{"internalType":"uint256","name":"","type":"uint256"}],"name":"lastTransferAt","outputs":[{"internalType":"uint256","name":"","type":"uint256"}],"stateMutability":"view","type":"function"},{"inputs":[{"internalType":"uint256","name":"","type":"uint256"}],"name":"mintAt","outputs":[{"internalType":"uint256","name":"","type":"uint256"}],"stateMutability":"view","type":"function"},{"inputs":[],"name":"name","outputs":[{"internalType":"string","name":"","type":"string"}],"stateMutability":"view","type":"function"},{"inputs":[],"name":"owner","outputs":[{"internalType":"address","name":"","type":"address"}],"stateMutability":"view","type":"function"},{"inputs":[{"internalType":"uint256","name":"tokenId","type":"uint256"}],"name":"ownerOf","outputs":[{"internalType":"address","name":"","type":"address"}],"stateMutability":"view","type":"function"},{"inputs":[],"name":"pause","outputs":[],"stateMutability":"nonpayable","type":"function"},{"inputs":[],"name":"paused","outputs":[{"internalType":"bool","name":"","type":"bool"}],"stateMutability":"view","type":"function"},{"inputs":[],"name":"renounceOwnership","outputs":[],"stateMutability":"nonpayable","type":"function"},{"inputs":[{"internalType":"address","name":"to","type":"address"}],"name":"safeMint","outputs":[{"internalType":"uint256","name":"tokenId","type":"uint256"}],"stateMutability":"nonpayable","type":"function"},{"inputs":[{"internalType":"address","name":"from","type":"address"},{"internalType":"address","name":"to","type":"address"},{"internalType":"uint256","name":"tokenId","type":"uint256"}],"name":"safeTransferFrom","outputs":[],"stateMutability":"nonpayable","type":"function"},{"inputs":[{"internalType":"address","name":"from","type":"address"},{"internalType":"address","name":"to","type":"address"},{"internalType":"uint256","name":"tokenId","type":"uint256"},{"internalType":"bytes","name":"data","type":"bytes"}],"name":"safeTransferFrom","outputs":[],"stateMutability":"nonpayable","type":"function"},{"inputs":[{"internalType":"address","name":"operator","type":"address"},{"internalType":"bool","name":"approved","type":"bool"}],"name":"setApprovalForAll","outputs":[],"stateMutability":"nonpayable","type":"function"},{"inputs":[{"internalType":"address","name":"user","type":"address"},{"internalType":"bool","name":"ok","type":"bool"}],"name":"setKYC","outputs":[],"stateMutability":"nonpayable","type":"function"},{"inputs":[{"internalType":"bytes4","name":"interfaceId","type":"bytes4"}],"name":"supportsInterface","outputs":[{"internalType":"bool","name":"","type":"bool"}],"stateMutability":"view","type":"function"},{"inputs":[],"name":"symbol","outputs":[{"internalType":"string","name":"","type":"string"}],"stateMutability":"view","type":"function"},{"inputs":[{"internalType":"uint256","name":"tokenId","type":"uint256"}],"name":"tokenURI","outputs":[{"internalType":"string","name":"","type":"string"}],"stateMutability":"view","type":"function"},{"inputs":[{"internalType":"address","name":"from","type":"address"},{"internalType":"address","name":"to","type":"address"},{"internalType":"uint256","name":"tokenId","type":"uint256"}],"name":"transferFrom","outputs":[],"stateMutability":"nonpayable","type":"function"},{"inputs":[{"internalType":"address","name":"newOwner","type":"address"}],"name":"transferOwnership","outputs":[],"stateMutability":"nonpayable","type":"function"},{"inputs":[],"name":"unpause","outputs":[],"stateMutability":"nonpayable","type":"function"}],"evm":{"bytecode":{"linkReferences":{},"object":"60806040523480156200001157600080fd5b5060405162001b2938038062001b298339810160408190526200003491620001c7565b3386866000620000458382620002e7565b506001620000548282620002e7565b5050506001600160a01b0381166200008657604051631e4fbdf760e01b81526000600482015260240160405180910390fd5b6200009181620000ad565b50600793909355600891909155600955600a5550620003b39050565b600680546001600160a01b038381166001600160a01b0319831681179093556040519116919082907f8be0079c531659141344cd1fd0a4f28419497f9722a3daafe3b4186f6b6457e090600090a35050565b634e487b7160e01b600052604160045260246000fd5b600082601f8301126200012757600080fd5b81516001600160401b0380821115620001445762000144620000ff565b604051601f8301601f19908116603f011681019082821181831017156200016f576200016f620000ff565b81604052838152602092508660208588010111156200018d57600080fd5b600091505b83821015620001b1578582018301518183018401529082019062000192565b6000602085830101528094505050505092915050565b60008060008060008060c08789031215620001e157600080fd5b86516001600160401b0380821115620001f957600080fd5b620002078a838b0162000115565b975060208901519150808211156200021e57600080fd5b506200022d89828a0162000115565b95505060408701519350606087015192506080870151915060a087015190509295509295509295565b600181811c908216806200026b57607f821691505b6020821081036200028c57634e487b7160e01b600052602260045260246000fd5b50919050565b601f821115620002e2576000816000526020600020601f850160051c81016020861015620002bd5750805b601f850160051c820191505b81811015620002de57828155600101620002c9565b5050505b505050565b81516001600160401b03811115620003035762000303620000ff565b6200031b8162000314845462000256565b8462000292565b602080601f8311600181146200035357600084156200033a5750858301515b600019600386901b1c1916600185901b178555620002de565b600085815260208120601f198616915b82811015620003845788860151825594840194600190910190840162000363565b5085821015620003a35787850151600019600388901b60f8161c191681555b5050505050600190811b01905550565b61176680620003c36000396000f3fe608060405234801561001057600080fd5b50600436106101cf5760003560e01c806370a08231116101045780639b3c6b22116100a2578063c87b56dd11610071578063c87b56dd146103cb578063e7cb9f2d146103de578063e985e9c5146103e7578063f2fde38b146103fa57600080fd5b80639b3c6b221461036f578063a22cb46514610382578063af171a7f14610395578063b88d4fde146103b857600080fd5b80638456cb59116100de5780638456cb591461032e5780638bb27e70146103365780638da5cb5b1461035657806395d89b411461036757600080fd5b806370a082311461030a578063715018a61461031d5780637d32e6a41461032557600080fd5b806340d097c3116101715780635123bacc1161014b5780635123bacc146102b25780635c975abb146102c55780636352211e146102d75780637046bc67146102ea57600080fd5b806340d097c31461028357806342842e0e1461029657806344fd9caa146102a957600080fd5b8063095ea7b3116101ad578063095ea7b31461023c578063202887e71461025157806323b872dd146102685780633f4ba83a1461027b57600080fd5b806301ffc9a7146101d457806306fdde03146101fc578063081812fc14610211575b600080fd5b6101e76101e23660046112e9565b61040d565b60405190151581526020015b60405180910390f35b61020461045f565b6040516101f39190611356565b61022461021f366004611369565b6104f1565b6040516001600160a01b0390911681526020016101f3565b61024f61024a36600461139e565b61051a565b005b61025a60085481565b6040519081526020016101f3565b61024f6102763660046113c8565b610529565b61024f6105b9565b61025a610291366004611404565b6105cb565b61024f6102a43660046113c8565b610619565b61025a60075481565b61024f6102c036600461142f565b610639565b600654600160a01b900460ff166101e7565b6102246102e5366004611369565b6106a0565b61025a6102f8366004611369565b600d6020526000908152604090205481565b61025a610318366004611404565b6106ab565b61024f6106f3565b61025a600a5481565b61024f610705565b61025a610344366004611369565b600b6020526000908152604090205481565b6006546001600160a01b0316610224565b610204610715565b61024f61037d366004611462565b610724565b61024f61039036600461142f565b6107fe565b6101e76103a3366004611404565b600c6020526000908152604090205460ff1681565b61024f6103c63660046114fc565b610809565b6102046103d9366004611369565b610821565b61025a60095481565b6101e76103f53660046115d8565b610896565b61024f610408366004611404565b6108c4565b60006001600160e01b031982166380ac58cd60e01b148061043e57506001600160e01b03198216635b5e139f60e01b145b8061045957506301ffc9a760e01b6001600160e01b03198316145b92915050565b60606000805461046e90611602565b80601f016020809104026020016040519081016040528092919081815260200182805461049a90611602565b80156104e75780601f106104bc576101008083540402835291602001916104e7565b820191906000526020600020905b8154815290600101906020018083116104ca57829003601f168201915b5050505050905090565b60006104fc82610902565b506000828152600460205260409020546001600160a01b0316610459565b61052582823361093b565b5050565b6001600160a01b03821661055857604051633250574960e11b8152600060048201526024015b60405180910390fd5b6000610565838333610948565b9050836001600160a01b0316816001600160a01b0316146105b3576040516364283d7b60e01b81526001600160a01b038086166004830152602482018490528216604482015260640161054f565b50505050565b6105c1610ad2565b6105c9610aff565b565b60006105d5610ad2565b600e600081546105e490611652565b918290555090506105f58282610b54565b6000818152600d602090815260408083204290819055600b90925290912055919050565b61063483838360405180602001604052806000815250610809565b505050565b610641610ad2565b6001600160a01b0382166000818152600c6020908152604091829020805460ff191685151590811790915591519182527f2bd9ea086356b3e60459594f10458ff8dae3d16fef711bb3dd479a06f745a246910160405180910390a25050565b600061045982610902565b60006001600160a01b0382166106d7576040516322718ad960e21b81526000600482015260240161054f565b506001600160a01b031660009081526003602052604090205490565b6106fb610ad2565b6105c96000610b6e565b61070d610ad2565b6105c9610bc0565b60606001805461046e90611602565b61072c610ad2565b60005b828110156105b35781600c600086868581811061074e5761074e61166b565b90506020020160208101906107639190611404565b6001600160a01b031681526020810191909152604001600020805460ff191691151591909117905583838281811061079d5761079d61166b565b90506020020160208101906107b29190611404565b6001600160a01b03167f2bd9ea086356b3e60459594f10458ff8dae3d16fef711bb3dd479a06f745a246836040516107ee911515815260200190565b60405180910390a260010161072f565b610525338383610c03565b610814848484610529565b6105b33385858585610ca2565b606061082c82610902565b50600061084460408051602081019091526000815290565b90506000815111610864576040518060200160405280600081525061088f565b8061086e84610dcd565b60405160200161087f929190611681565b6040516020818303038152906040525b9392505050565b6001600160a01b03918216600090815260056020908152604080832093909416825291909152205460ff1690565b6108cc610ad2565b6001600160a01b0381166108f657604051631e4fbdf760e01b81526000600482015260240161054f565b6108ff81610b6e565b50565b6000818152600260205260408120546001600160a01b03168061045957604051637e27328960e01b81526004810184905260240161054f565b6106348383836001610e60565b6000610952610f66565b6000838152600260205260409020546001600160a01b03168015610a9b57600854600a5461098090426116b0565b106109c25760405162461bcd60e51b81526020600482015260126024820152711399585c88195d995b9d08189b1bd8dad95960721b604482015260640161054f565b6009546000858152600b60205260409020546109de90426116c3565b1015610a175760405162461bcd60e51b815260206004820152600860248201526721b7b7b63237bbb760c11b604482015260640161054f565b6001600160a01b0381166000908152600c602052604090205460ff168015610a5757506001600160a01b0385166000908152600c602052604090205460ff165b610a965760405162461bcd60e51b815260206004820152601060248201526f12d650cbd41bd4081c995c5d5a5c995960821b604482015260640161054f565b610aad565b6000848152600d602052604090204290555b6000848152600b60205260409020429055610ac9858585610f91565b95945050505050565b6006546001600160a01b031633146105c95760405163118cdaa760e01b815233600482015260240161054f565b610b0761108a565b6006805460ff60a01b191690557f5db9ee0a495bf2e6ff9c91a7834c1ba4fdd244a5e8aa4e537bd38aeae4b073aa335b6040516001600160a01b03909116815260200160405180910390a1565b6105258282604051806020016040528060008152506110b4565b600680546001600160a01b038381166001600160a01b0319831681179093556040519116919082907f8be0079c531659141344cd1fd0a4f28419497f9722a3daafe3b4186f6b6457e090600090a35050565b610bc8610f66565b6006805460ff60a01b1916600160a01b1790557f62e78cea01bee320cd4e420270b5ea74000d11b0c9f74754ebdbfc544b05a258610b373390565b6001600160a01b038216610c3557604051630b61174360e31b81526001600160a01b038316600482015260240161054f565b6001600160a01b03838116600081815260056020908152604080832094871680845294825291829020805460ff191686151590811790915591519182527f17307eab39ab6107e8899845ad3d59bd9653f200f220920489ca2b5937696c31910160405180910390a3505050565b6001600160a01b0383163b15610dc657604051630a85bd0160e11b81526001600160a01b0384169063150b7a0290610ce49088908890879087906004016116d6565b6020604051808303816000875af1925050508015610d1f575060408051601f3d908101601f19168201909252610d1c91810190611713565b60015b610d88573d808015610d4d576040519150601f19603f3d011682016040523d82523d6000602084013e610d52565b606091505b508051600003610d8057604051633250574960e11b81526001600160a01b038516600482015260240161054f565b805160208201fd5b6001600160e01b03198116630a85bd0160e11b14610dc457604051633250574960e11b81526001600160a01b038516600482015260240161054f565b505b5050505050565b60606000610dda836110cc565b600101905060008167ffffffffffffffff811115610dfa57610dfa6114e6565b6040519080825280601f01601f191660200182016040528015610e24576020820181803683370190505b5090508181016020015b600019016f181899199a1a9b1b9c1cb0b131b232b360811b600a86061a8153600a8504945084610e2e57509392505050565b8080610e7457506001600160a01b03821615155b15610f36576000610e8484610902565b90506001600160a01b03831615801590610eb05750826001600160a01b0316816001600160a01b031614155b8015610ec35750610ec18184610896565b155b15610eec5760405163a9fbf51f60e01b81526001600160a01b038416600482015260240161054f565b8115610f345783856001600160a01b0316826001600160a01b03167f8c5be1e5ebec7d5bd14f71427d1e84f3dd0314c0f7b2291e5b200ac8c7c3b92560405160405180910390a45b505b5050600090815260046020526040902080546001600160a01b0319166001600160a01b0392909216919091179055565b600654600160a01b900460ff16156105c95760405163d93c066560e01b815260040160405180910390fd5b6000828152600260205260408120546001600160a01b0390811690831615610fbe57610fbe8184866111a4565b6001600160a01b03811615610ffc57610fdb600085600080610e60565b6001600160a01b038116600090815260036020526040902080546000190190555b6001600160a01b0385161561102b576001600160a01b0385166000908152600360205260409020805460010190555b60008481526002602052604080822080546001600160a01b0319166001600160a01b0389811691821790925591518793918516917fddf252ad1be2c89b69c2b068fc378daa952ba7f163c4a11628f55a4df523b3ef91a4949350505050565b600654600160a01b900460ff166105c957604051638dfc202b60e01b815260040160405180910390fd5b6110be8383611208565b610634336000858585610ca2565b60008072184f03e93ff9f4daa797ed6e38ed64bf6a1f0160401b831061110b5772184f03e93ff9f4daa797ed6e38ed64bf6a1f0160401b830492506040015b6d04ee2d6d415b85acef81000000008310611137576d04ee2d6d415b85acef8100000000830492506020015b662386f26fc10000831061115557662386f26fc10000830492506010015b6305f5e100831061116d576305f5e100830492506008015b612710831061118157612710830492506004015b60648310611193576064830492506002015b600a83106104595760010192915050565b6111af83838361126d565b610634576001600160a01b0383166111dd57604051637e27328960e01b81526004810182905260240161054f565b60405163177e802f60e01b81526001600160a01b03831660048201526024810182905260440161054f565b6001600160a01b03821661123257604051633250574960e11b81526000600482015260240161054f565b600061124083836000610948565b90506001600160a01b03811615610634576040516339e3563760e11b81526000600482015260240161054f565b60006001600160a01b038316158015906112cb5750826001600160a01b0316846001600160a01b031614806112a757506112a78484610896565b806112cb57506000828152600460205260409020546001600160a01b038481169116145b949350505050565b6001600160e01b0319811681146108ff57600080fd5b6000602082840312156112fb57600080fd5b813561088f816112d3565b60005b83811015611321578181015183820152602001611309565b50506000910152565b60008151808452611342816020860160208601611306565b601f01601f19169290920160200192915050565b60208152600061088f602083018461132a565b60006020828403121561137b57600080fd5b5035919050565b80356001600160a01b038116811461139957600080fd5b919050565b600080604083850312156113b157600080fd5b6113ba83611382565b946020939093013593505050565b6000806000606084860312156113dd57600080fd5b6113e684611382565b92506113f460208501611382565b9150604084013590509250925092565b60006020828403121561141657600080fd5b61088f82611382565b8035801515811461139957600080fd5b6000806040838503121561144257600080fd5b61144b83611382565b91506114596020840161141f565b90509250929050565b60008060006040848603121561147757600080fd5b833567ffffffffffffffff8082111561148f57600080fd5b818601915086601f8301126114a357600080fd5b8135818111156114b257600080fd5b8760208260051b85010111156114c757600080fd5b6020928301955093506114dd918601905061141f565b90509250925092565b634e487b7160e01b600052604160045260246000fd5b6000806000806080858703121561151257600080fd5b61151b85611382565b935061152960208601611382565b925060408501359150606085013567ffffffffffffffff8082111561154d57600080fd5b818701915087601f83011261156157600080fd5b813581811115611573576115736114e6565b604051601f8201601f19908116603f0116810190838211818310171561159b5761159b6114e6565b816040528281528a60208487010111156115b457600080fd5b82602086016020830137600060208483010152809550505050505092959194509250565b600080604083850312156115eb57600080fd5b6115f483611382565b915061145960208401611382565b600181811c9082168061161657607f821691505b60208210810361163657634e487b7160e01b600052602260045260246000fd5b50919050565b634e487b7160e01b600052601160045260246000fd5b6000600182016116645761166461163c565b5060010190565b634e487b7160e01b600052603260045260246000fd5b60008351611693818460208801611306565b8351908301906116a7818360208801611306565b01949350505050565b808201808211156104595761045961163c565b818103818111156104595761045961163c565b6001600160a01b03858116825284166020820152604081018390526080606082018190526000906117099083018461132a565b9695505050505050565b60006020828403121561172557600080fd5b815161088f816112d356fea26469706673582212208ecff9655238b4047ca53a1cea5b879576eb549666d2bcac218bd7fb2713bf0664736f6c63430008180033","opcodes":"PUSH1 0x80 PUSH1 0x40 MSTORE CALLVALUE DUP1 ISZERO PUSH3 0x11 JUMPI PUSH1 0x0 DUP1 REVERT JUMPDEST POP PUSH1 0x40 MLOAD PUSH3 0x1B29 CODESIZE SUB DUP1 PUSH3 0x1B29 DUP4 CODECOPY DUP2 ADD PUSH1 0x40 DUP2 SWAP1 MSTORE PUSH3 0x34 SWAP2 PUSH3 0x1C7 JUMP JUMPDEST CALLER DUP7 DUP7 PUSH1 0x0 PUSH3 0x45 DUP4 DUP3 PUSH3 0x2E7 JUMP JUMPDEST POP PUSH1 0x1 PUSH3 0x54 DUP3 DUP3 PUSH3 0x2E7 JUMP JUMPDEST POP POP POP PUSH1 0x1 PUSH1 0x1 PUSH1 0xA0 SHL SUB DUP2 AND PUSH3 0x86 JUMPI PUSH1 0x40 MLOAD PUSH4 0x1E4FBDF7 PUSH1 0xE0 SHL DUP2 MSTORE PUSH1 0x0 PUSH1 0x4 DUP3 ADD MSTORE PUSH1 0x24 ADD PUSH1 0x40 MLOAD DUP1 SWAP2 SUB SWAP1 REVERT JUMPDEST PUSH3 0x91 DUP2 PUSH3 0xAD JUMP JUMPDEST POP PUSH1 0x7 SWAP4 SWAP1 SWAP4 SSTORE PUSH1 0x8 SWAP2 SWAP1 SWAP2 SSTORE PUSH1 0x9 SSTORE PUSH1 0xA SSTORE POP PUSH3 0x3B3 SWAP1 POP JUMP JUMPDEST PUSH1 0x6 DUP1 SLOAD PUSH1 0x1 PUSH1 0x1 PUSH1 0xA0 SHL SUB DUP4 DUP2 AND PUSH1 0x1 PUSH1 0x1 PUSH1 0xA0 SHL SUB NOT DUP4 AND DUP2 OR SWAP1 SWAP4 SSTORE PUSH1 0x40 MLOAD SWAP2 AND SWAP2 SWAP1 DUP3 SWAP1 PUSH32 0x8BE0079C531659141344CD1FD0A4F28419497F9722A3DAAFE3B4186F6B6457E0 SWAP1 PUSH1 0x0 SWAP1 LOG3 POP POP JUMP JUMPDEST PUSH4 0x4E487B71 PUSH1 0xE0 SHL PUSH1 0x0 MSTORE PUSH1 0x41 PUSH1 0x4 MSTORE PUSH1 0x24 PUSH1 0x0 REVERT JUMPDEST PUSH1 0x0 DUP3 PUSH1 0x1F DUP4 ADD SLT PUSH3 0x127 JUMPI PUSH1 0x0 DUP1 REVERT JUMPDEST DUP2 MLOAD PUSH1 0x1 PUSH1 0x1 PUSH1 0x40 SHL SUB DUP1 DUP3 GT ISZERO PUSH3 0x144 JUMPI PUSH3 0x144 PUSH3 0xFF JUMP JUMPDEST PUSH1 0x40 MLOAD PUSH1 0x1F DUP4 ADD PUSH1 0x1F NOT SWAP1 DUP2 AND PUSH1 0x3F ADD AND DUP2 ADD SWAP1 DUP3 DUP3 GT DUP2 DUP4 LT OR ISZERO PUSH3 0x16F JUMPI PUSH3 0x16F PUSH3 0xFF JUMP JUMPDEST DUP2 PUSH1 0x40 MSTORE DUP4 DUP2 MSTORE PUSH1 0x20 SWAP3 POP DUP7 PUSH1 0x20 DUP6 DUP9 ADD ADD GT ISZERO PUSH3 0x18D JUMPI PUSH1 0x0 DUP1 REVERT JUMPDEST PUSH1 0x0 SWAP2 POP JUMPDEST DUP4 DUP3 LT ISZERO PUSH3 0x1B1 JUMPI DUP6 DUP3 ADD DUP4 ADD MLOAD DUP2 DUP4 ADD DUP5 ADD MSTORE SWAP1 DUP3 ADD SWAP1 PUSH3 0x192 JUMP JUMPDEST PUSH1 0x0 PUSH1 0x20 DUP6 DUP4 ADD ADD MSTORE DUP1 SWAP5 POP POP POP POP POP SWAP3 SWAP2 POP POP JUMP JUMPDEST PUSH1 0x0 DUP1 PUSH1 0x0 DUP1 PUSH1 0x0 DUP1 PUSH1 0xC0 DUP8 DUP10 SUB SLT ISZERO PUSH3 0x1E1 JUMPI PUSH1 0x0 DUP1 REVERT JUMPDEST DUP7 MLOAD PUSH1 0x1 PUSH1 0x1 PUSH1 0x40 SHL SUB DUP1 DUP3 GT ISZERO PUSH3 0x1F9 JUMPI PUSH1 0x0 DUP1 REVERT JUMPDEST PUSH3 0x207 DUP11 DUP4 DUP12 ADD PUSH3 0x115 JUMP JUMPDEST SWAP8 POP PUSH1 0x20 DUP10 ADD MLOAD SWAP2 POP DUP1 DUP3 GT ISZERO PUSH3 0x21E JUMPI PUSH1 0x0 DUP1 REVERT JUMPDEST POP PUSH3 0x22D DUP10 DUP3 DUP11 ADD PUSH3 0x115 JUMP JUMPDEST SWAP6 POP POP PUSH1 0x40 DUP8 ADD MLOAD SWAP4 POP PUSH1 0x60 DUP8 ADD MLOAD SWAP3 POP PUSH1 0x80 DUP8 ADD MLOAD SWAP2 POP PUSH1 0xA0 DUP8 ADD MLOAD SWAP1 POP SWAP3 SWAP6 POP SWAP3 SWAP6 POP SWAP3 SWAP6 JUMP JUMPDEST PUSH1 0x1 DUP2 DUP2 SHR SWAP1 DUP3 AND DUP1 PUSH3 0x26B JUMPI PUSH1 0x7F DUP3 AND SWAP2 POP JUMPDEST PUSH1 0x20 DUP3 LT DUP2 SUB PUSH3 0x28C JUMPI PUSH4 0x4E487B71 PUSH1 0xE0 SHL PUSH1 0x0 MSTORE PUSH1 0x22 PUSH1 0x4 MSTORE PUSH1 0x24 PUSH1 0x0 REVERT JUMPDEST POP SWAP2 SWAP1 POP JUMP JUMPDEST PUSH1 0x1F DUP3 GT ISZERO PUSH3 0x2E2 JUMPI PUSH1 0x0 DUP2 PUSH1 0x0 MSTORE PUSH1 0x20 PUSH1 0x0 KECCAK256 PUSH1 0x1F DUP6 ADD PUSH1 0x5 SHR DUP2 ADD PUSH1 0x20 DUP7 LT ISZERO PUSH3 0x2BD JUMPI POP DUP1 JUMPDEST PUSH1 0x1F DUP6 ADD PUSH1 0x5 SHR DUP3 ADD SWAP2 POP JUMPDEST DUP2 DUP2 LT ISZERO PUSH3 0x2DE JUMPI DUP3 DUP2 SSTORE PUSH1 0x1 ADD PUSH3 0x2C9 JUMP JUMPDEST POP POP POP JUMPDEST POP POP POP JUMP JUMPDEST DUP2 MLOAD PUSH1 0x1 PUSH1 0x1 PUSH1 0x40 SHL SUB DUP2 GT ISZERO PUSH3 0x303 JUMPI PUSH3 0x303 PUSH3 0xFF JUMP JUMPDEST PUSH3 0x31B DUP2 PUSH3 0x314 DUP5 SLOAD PUSH3 0x256 JUMP JUMPDEST DUP5 PUSH3 0x292 JUMP JUMPDEST PUSH1 0x20 DUP1 PUSH1 0x1F DUP4 GT PUSH1 0x1 DUP2 EQ PUSH3 0x353 JUMPI PUSH1 0x0 DUP5 ISZERO PUSH3 0x33A JUMPI POP DUP6 DUP4 ADD MLOAD JUMPDEST PUSH1 0x0 NOT PUSH1 0x3 DUP7 SWAP1 SHL SHR NOT AND PUSH1 0x1 DUP6 SWAP1 SHL OR DUP6 SSTORE PUSH3 0x2DE JUMP JUMPDEST PUSH1 0x0 DUP6 DUP2 MSTORE PUSH1 0x20 DUP2 KECCAK256 PUSH1 0x1F NOT DUP7 AND SWAP2 JUMPDEST DUP3 DUP2 LT ISZERO PUSH3 0x384 JUMPI DUP9 DUP7 ADD MLOAD DUP3 SSTORE SWAP5 DUP5 ADD SWAP5 PUSH1 0x1 SWAP1 SWAP2 ADD SWAP1 DUP5 ADD PUSH3 0x363 JUMP JUMPDEST POP DUP6 DUP3 LT ISZERO PUSH3 0x3A3 JUMPI DUP8 DUP6 ADD MLOAD PUSH1 0x0 NOT PUSH1 0x3 DUP9 SWAP1 SHL PUSH1 0xF8 AND SHR NOT AND DUP2 SSTORE JUMPDEST POP POP POP POP POP PUSH1 0x1 SWAP1 DUP2 SHL ADD SWAP1 SSTORE POP JUMP JUMPDEST PUSH2 0x1766 DUP1 PUSH3 0x3C3 PUSH1 0x0 CODECOPY PUSH1 0x0 RETURN INVALID PUSH1 0x80 PUSH1 0x40 MSTORE CALLVALUE DUP1 ISZERO PUSH2 0x10 JUMPI PUSH1 0x0 DUP1 REVERT JUMPDEST POP PUSH1 0x4 CALLDATASIZE LT PUSH2 0x1CF JUMPI PUSH1 0x0 CALLDATALOAD PUSH1 0xE0 SHR DUP1 PUSH4 0x70A08231 GT PUSH2 0x104 JUMPI DUP1 PUSH4 0x9B3C6B22 GT PUSH2 0xA2 JUMPI DUP1 PUSH4 0xC87B56DD GT PUSH2 0x71 JUMPI DUP1 PUSH4 0xC87B56DD EQ PUSH2 0x3CB JUMPI DUP1 PUSH4 0xE7CB9F2D EQ PUSH2 0x3DE JUMPI DUP1 PUSH4 0xE985E9C5 EQ PUSH2 0x3E7 JUMPI DUP1 PUSH4 0xF2FDE38B EQ PUSH2 0x3FA JUMPI PUSH1 0x0 DUP1 REVERT JUMPDEST DUP1 PUSH4 0x9B3C6B22 EQ PUSH2 0x36F JUMPI DUP1 PUSH4 0xA22CB465 EQ PUSH2 0x382 JUMPI DUP1 PUSH4 0xAF171A7F EQ PUSH2 0x395 JUMPI DUP1 PUSH4 0xB88D4FDE EQ PUSH2 0x3B8 JUMPI PUSH1 0x0 DUP1 REVERT JUMPDEST DUP1 PUSH4 0x8456CB59 GT PUSH2 0xDE JUMPI DUP1 PUSH4 0x8456CB59 EQ PUSH2 0x32E JUMPI DUP1 PUSH4 0x8BB27E70 EQ PUSH2 0x336 JUMPI DUP1 PUSH4 0x8DA5CB5B EQ PUSH2 0x356 JUMPI DUP1 PUSH4 0x95D89B41 EQ PUSH2 0x367 JUMPI PUSH1 0x0 DUP1 REVERT JUMPDEST DUP1 PUSH4 0x70A08231 EQ PUSH2 0x30A JUMPI DUP1 PUSH4 0x715018A6 EQ PUSH2 0x31D JUMPI DUP1 PUSH4 0x7D32E6A4 EQ PUSH2 0x325 JUMPI PUSH1 0x0 DUP1 REVERT JUMPDEST DUP1 PUSH4 0x40D097C3 GT PUSH2 0x171 JUMPI DUP1 PUSH4 0x5123BACC GT PUSH2 0x14B JUMPI DUP1 PUSH4 0x5123BACC EQ PUSH2 0x2B2 JUMPI DUP1 PUSH4 0x5C975ABB EQ PUSH2 0x2C5 JUMPI DUP1 PUSH4 0x6352211E EQ PUSH2 0x2D7 JUMPI DUP1 PUSH4 0x7046BC67 EQ PUSH2 0x2EA JUMPI PUSH1 0x0 DUP1 REVERT JUMPDEST DUP1 PUSH4 0x40D097C3 EQ PUSH2 0x283 JUMPI DUP1 PUSH4 0x42842E0E EQ PUSH2 0x296 JUMPI DUP1 PUSH4 0x44FD9CAA EQ PUSH2 0x2A9 JUMPI PUSH1 0x0 DUP1 REVERT JUMPDEST DUP1 PUSH4 0x95EA7B3 GT PUSH2 0x1AD JUMPI DUP1 PUSH4 0x95EA7B3 EQ PUSH2 0x23C JUMPI DUP1 PUSH4 0x202887E7 EQ PUSH2 0x251 JUMPI DUP1 PUSH4 0x23B872DD EQ PUSH2 0x268 JUMPI DUP1 PUSH4 0x3F4BA83A EQ PUSH2 0x27B JUMPI PUSH1 0x0 DUP1 REVERT JUMPDEST DUP1 PUSH4 0x1FFC9A7 EQ PUSH2 0x1D4 JUMPI DUP1 PUSH4 0x6FDDE03 EQ PUSH2 0x1FC JUMPI DUP1 PUSH4 0x81812FC EQ PUSH2 0x211 JUMPI JUMPDEST PUSH1 0x0 DUP1 REVERT JUMPDEST PUSH2 0x1E7 PUSH2 0x1E2 CALLDATASIZE PUSH1 0x4 PUSH2 0x12E9 JUMP JUMPDEST PUSH2 0x40D JUMP JUMPDEST PUSH1 0x40 MLOAD SWAP1 ISZERO ISZERO DUP2 MSTORE PUSH1 0x20 ADD JUMPDEST PUSH1 0x40 MLOAD DUP1 SWAP2 SUB SWAP1 RETURN JUMPDEST PUSH2 0x204 PUSH2 0x45F JUMP JUMPDEST PUSH1 0x40 MLOAD PUSH2 0x1F3 SWAP2 SWAP1 PUSH2 0x1356 JUMP JUMPDEST PUSH2 0x224 PUSH2 0x21F CALLDATASIZE PUSH1 0x4 PUSH2 0x1369 JUMP JUMPDEST PUSH2 0x4F1 JUMP JUMPDEST PUSH1 0x40 MLOAD PUSH1 0x1 PUSH1 0x1 PUSH1 0xA0 SHL SUB SWAP1 SWAP2 AND DUP2 MSTORE PUSH1 0x20 ADD PUSH2 0x1F3 JUMP JUMPDEST PUSH2 0x24F PUSH2 0x24A CALLDATASIZE PUSH1 0x4 PUSH2 0x139E JUMP JUMPDEST PUSH2 0x51A JUMP JUMPDEST STOP JUMPDEST PUSH2 0x25A PUSH1 0x8 SLOAD DUP2 JUMP JUMPDEST PUSH1 0x40 MLOAD SWAP1 DUP2 MSTORE PUSH1 0x20 ADD PUSH2 0x1F3 JUMP JUMPDEST PUSH2 0x24F PUSH2 0x276 CALLDATASIZE PUSH1 0x4 PUSH2 0x13C8 JUMP JUMPDEST PUSH2 0x529 JUMP JUMPDEST PUSH2 0x24F PUSH2 0x5B9 JUMP JUMPDEST PUSH2 0x25A PUSH2 0x291 CALLDATASIZE PUSH1 0x4 PUSH2 0x1404 JUMP JUMPDEST PUSH2 0x5CB JUMP JUMPDEST PUSH2 0x24F PUSH2 0x2A4 CALLDATASIZE PUSH1 0x4 PUSH2 0x13C8 JUMP JUMPDEST PUSH2 0x619 JUMP JUMPDEST PUSH2 0x25A PUSH1 0x7 SLOAD DUP2 JUMP JUMPDEST PUSH2 0x24F PUSH2 0x2C0 CALLDATASIZE PUSH1 0x4 PUSH2 0x142F JUMP JUMPDEST PUSH2 0x639 JUMP JUMPDEST PUSH1 0x6 SLOAD PUSH1 0x1 PUSH1 0xA0 SHL SWAP1 DIV PUSH1 0xFF AND PUSH2 0x1E7 JUMP JUMPDEST PUSH2 0x224 PUSH2 0x2E5 CALLDATASIZE PUSH1 0x4 PUSH2 0x1369 JUMP JUMPDEST PUSH2 0x6A0 JUMP JUMPDEST PUSH2 0x25A PUSH2 0x2F8 CALLDATASIZE PUSH1 0x4 PUSH2 0x1369 JUMP JUMPDEST PUSH1 0xD PUSH1 0x20 MSTORE PUSH1 0x0 SWAP1 DUP2 MSTORE PUSH1 0x40 SWAP1 KECCAK256 SLOAD DUP2 JUMP JUMPDEST PUSH2 0x25A PUSH2 0x318 CALLDATASIZE PUSH1 0x4 PUSH2 0x1404 JUMP JUMPDEST PUSH2 0x6AB JUMP JUMPDEST PUSH2 0x24F PUSH2 0x6F3 JUMP JUMPDEST PUSH2 0x25A PUSH1 0xA SLOAD DUP2 JUMP JUMPDEST PUSH2 0x24F PUSH2 0x705 JUMP JUMPDEST PUSH2 0x25A PUSH2 0x344 CALLDATASIZE PUSH1 0x4 PUSH2 0x1369 JUMP JUMPDEST PUSH1 0xB PUSH1 0x20 MSTORE PUSH1 0x0 SWAP1 DUP2 MSTORE PUSH1 0x40 SWAP1 KECCAK256 SLOAD DUP2 JUMP JUMPDEST PUSH1 0x6 SLOAD PUSH1 0x1 PUSH1 0x1 PUSH1 0xA0 SHL SUB AND PUSH2 0x224 JUMP JUMPDEST PUSH2 0x204 PUSH2 0x715 JUMP JUMPDEST PUSH2 0x24F PUSH2 0x37D CALLDATASIZE PUSH1 0x4 PUSH2 0x1462 JUMP JUMPDEST PUSH2 0x724 JUMP JUMPDEST PUSH2 0x24F PUSH2 0x390 CALLDATASIZE PUSH1 0x4 PUSH2 0x142F JUMP JUMPDEST PUSH2 0x7FE JUMP JUMPDEST PUSH2 0x1E7 PUSH2 0x3A3 CALLDATASIZE PUSH1 0x4 PUSH2 0x1404 JUMP JUMPDEST PUSH1 0xC PUSH1 0x20 MSTORE PUSH1 0x0 SWAP1 DUP2 MSTORE PUSH1 0x40 SWAP1 KECCAK256 SLOAD PUSH1 0xFF AND DUP2 JUMP JUMPDEST PUSH2 0x24F PUSH2 0x3C6 CALLDATASIZE PUSH1 0x4 PUSH2 0x14FC JUMP JUMPDEST PUSH2 0x809 JUMP JUMPDEST PUSH2 0x204 PUSH2 0x3D9 CALLDATASIZE PUSH1 0x4 PUSH2 0x1369 JUMP JUMPDEST PUSH2 0x821 JUMP JUMPDEST PUSH2 0x25A PUSH1 0x9 SLOAD DUP2 JUMP JUMPDEST PUSH2 0x1E7 PUSH2 0x3F5 CALLDATASIZE PUSH1 0x4 PUSH2 0x15D8 JUMP JUMPDEST PUSH2 0x896 JUMP JUMPDEST PUSH2 0x24F PUSH2 0x408 CALLDATASIZE PUSH1 0x4 PUSH2 0x1404 JUMP JUMPDEST PUSH2 0x8C4 JUMP JUMPDEST PUSH1 0x0 PUSH1 0x1 PUSH1 0x1 PUSH1 0xE0 SHL SUB NOT DUP3 AND PUSH4 0x80AC58CD PUSH1 0xE0 SHL EQ DUP1 PUSH2 0x43E JUMPI POP PUSH1 0x1 PUSH1 0x1 PUSH1 0xE0 SHL SUB NOT DUP3 AND PUSH4 0x5B5E139F PUSH1 0xE0 SHL EQ JUMPDEST DUP1 PUSH2 0x459 JUMPI POP PUSH4 0x1FFC9A7 PUSH1 0xE0 SHL PUSH1 0x1 PUSH1 0x1 PUSH1 0xE0 SHL SUB NOT DUP4 AND EQ JUMPDEST SWAP3 SWAP2 POP POP JUMP JUMPDEST PUSH1 0x60 PUSH1 0x0 DUP1 SLOAD PUSH2 0x46E SWAP1 PUSH2 0x1602 JUMP JUMPDEST DUP1 PUSH1 0x1F ADD PUSH1 0x20 DUP1 SWAP2 DIV MUL PUSH1 0x20 ADD PUSH1 0x40 MLOAD SWAP1 DUP2 ADD PUSH1 0x40 MSTORE DUP1 SWAP3 SWAP2 SWAP1 DUP2 DUP2 MSTORE PUSH1 0x20 ADD DUP3 DUP1 SLOAD PUSH2 0x49A SWAP1 PUSH2 0x1602 JUMP JUMPDEST DUP1 ISZERO PUSH2 0x4E7 JUMPI DUP1 PUSH1 0x1F LT PUSH2 0x4BC JUMPI PUSH2 0x100 DUP1 DUP4 SLOAD DIV MUL DUP4 MSTORE SWAP2 PUSH1 0x20 ADD SWAP2 PUSH2 0x4E7 JUMP JUMPDEST DUP3 ADD SWAP2 SWAP1 PUSH1 0x0 MSTORE PUSH1 0x20 PUSH1 0x0 KECCAK256 SWAP1 JUMPDEST DUP2 SLOAD DUP2 MSTORE SWAP1 PUSH1 0x1 ADD SWAP1 PUSH1 0x20 ADD DUP1 DUP4 GT PUSH2 0x4CA JUMPI DUP3 SWAP1 SUB PUSH1 0x1F AND DUP3 ADD SWAP2 JUMPDEST POP POP POP POP POP SWAP1 POP SWAP1 JUMP JUMPDEST PUSH1 0x0 PUSH2 0x4FC DUP3 PUSH2 0x902 JUMP JUMPDEST POP PUSH1 0x0 DUP3 DUP2 MSTORE PUSH1 0x4 PUSH1 0x20 MSTORE PUSH1 0x40 SWAP1 KECCAK256 SLOAD PUSH1 0x1 PUSH1 0x1 PUSH1 0xA0 SHL SUB AND PUSH2 0x459 JUMP JUMPDEST PUSH2 0x525 DUP3 DUP3 CALLER PUSH2 0x93B JUMP JUMPDEST POP POP JUMP JUMPDEST PUSH1 0x1 PUSH1 0x1 PUSH1 0xA0 SHL SUB DUP3 AND PUSH2 0x558 JUMPI PUSH1 0x40 MLOAD PUSH4 0x32505749 PUSH1 0xE1 SHL DUP2 MSTORE PUSH1 0x0 PUSH1 0x4 DUP3 ADD MSTORE PUSH1 0x24 ADD JUMPDEST PUSH1 0x40 MLOAD DUP1 SWAP2 SUB SWAP1 REVERT JUMPDEST PUSH1 0x0 PUSH2 0x565 DUP4 DUP4 CALLER PUSH2 0x948 JUMP JUMPDEST SWAP1 POP DUP4 PUSH1 0x1 PUSH1 0x1 PUSH1 0xA0 SHL SUB AND DUP2 PUSH1 0x1 PUSH1 0x1 PUSH1 0xA0 SHL SUB AND EQ PUSH2 0x5B3 JUMPI PUSH1 0x40 MLOAD PUSH4 0x64283D7B PUSH1 0xE0 SHL DUP2 MSTORE PUSH1 0x1 PUSH1 0x1 PUSH1 0xA0 SHL SUB DUP1 DUP7 AND PUSH1 0x4 DUP4 ADD MSTORE PUSH1 0x24 DUP3 ADD DUP5 SWAP1 MSTORE DUP3 AND PUSH1 0x44 DUP3 ADD MSTORE PUSH1 0x64 ADD PUSH2 0x54F JUMP JUMPDEST POP POP POP POP JUMP JUMPDEST PUSH2 0x5C1 PUSH2 0xAD2 JUMP JUMPDEST PUSH2 0x5C9 PUSH2 0xAFF JUMP JUMPDEST JUMP JUMPDEST PUSH1 0x0 PUSH2 0x5D5 PUSH2 0xAD2 JUMP JUMPDEST PUSH1 0xE PUSH1 0x0 DUP2 SLOAD PUSH2 0x5E4 SWAP1 PUSH2 0x1652 JUMP JUMPDEST SWAP2 DUP3 SWAP1 SSTORE POP SWAP1 POP PUSH2 0x5F5 DUP3 DUP3 PUSH2 0xB54 JUMP JUMPDEST PUSH1 0x0 DUP2 DUP2 MSTORE PUSH1 0xD PUSH1 0x20 SWAP1 DUP2 MSTORE PUSH1 0x40 DUP1 DUP4 KECCAK256 TIMESTAMP SWAP1 DUP2 SWAP1 SSTORE PUSH1 0xB SWAP1 SWAP3 MSTORE SWAP1 SWAP2 KECCAK256 SSTORE SWAP2 SWAP1 POP JUMP JUMPDEST PUSH2 0x634 DUP4 DUP4 DUP4 PUSH1 0x40 MLOAD DUP1 PUSH1 0x20 ADD PUSH1 0x40 MSTORE DUP1 PUSH1 0x0 DUP2 MSTORE POP PUSH2 0x809 JUMP JUMPDEST POP POP POP JUMP JUMPDEST PUSH2 0x641 PUSH2 0xAD2 JUMP JUMPDEST PUSH1 0x1 PUSH1 0x1 PUSH1 0xA0 SHL SUB DUP3 AND PUSH1 0x0 DUP2 DUP2 MSTORE PUSH1 0xC PUSH1 0x20 SWAP1 DUP2 MSTORE PUSH1 0x40 SWAP2 DUP3 SWAP1 KECCAK256 DUP1 SLOAD PUSH1 0xFF NOT AND DUP6 ISZERO ISZERO SWAP1 DUP2 OR SWAP1 SWAP2 SSTORE SWAP2 MLOAD SWAP2 DUP3 MSTORE PUSH32 0x2BD9EA086356B3E60459594F10458FF8DAE3D16FEF711BB3DD479A06F745A246 SWAP2 ADD PUSH1 0x40 MLOAD DUP1 SWAP2 SUB SWAP1 LOG2 POP POP JUMP JUMPDEST PUSH1 0x0 PUSH2 0x459 DUP3 PUSH2 0x902 JUMP JUMPDEST PUSH1 0x0 PUSH1 0x1 PUSH1 0x1 PUSH1 0xA0 SHL SUB DUP3 AND PUSH2 0x6D7 JUMPI PUSH1 0x40 MLOAD PUSH4 0x22718AD9 PUSH1 0xE2 SHL DUP2 MSTORE PUSH1 0x0 PUSH1 0x4 DUP3 ADD MSTORE PUSH1 0x24 ADD PUSH2 0x54F JUMP JUMPDEST POP PUSH1 0x1 PUSH1 0x1 PUSH1 0xA0 SHL SUB AND PUSH1 0x0 SWAP1 DUP2 MSTORE PUSH1 0x3 PUSH1 0x20 MSTORE PUSH1 0x40 SWAP1 KECCAK256 SLOAD SWAP1 JUMP JUMPDEST PUSH2 0x6FB PUSH2 0xAD2 JUMP JUMPDEST PUSH2 0x5C9 PUSH1 0x0 PUSH2 0xB6E JUMP JUMPDEST PUSH2 0x70D PUSH2 0xAD2 JUMP JUMPDEST PUSH2 0x5C9 PUSH2 0xBC0 JUMP JUMPDEST PUSH1 0x60 PUSH1 0x1 DUP1 SLOAD PUSH2 0x46E SWAP1 PUSH2 0x1602 JUMP JUMPDEST PUSH2 0x72C PUSH2 0xAD2 JUMP JUMPDEST PUSH1 0x0 JUMPDEST DUP3 DUP2 LT ISZERO PUSH2 0x5B3 JUMPI DUP2 PUSH1 0xC PUSH1 0x0 DUP7 DUP7 DUP6 DUP2 DUP2 LT PUSH2 0x74E JUMPI PUSH2 0x74E PUSH2 0x166B JUMP JUMPDEST SWAP1 POP PUSH1 0x20 MUL ADD PUSH1 0x20 DUP2 ADD SWAP1 PUSH2 0x763 SWAP2 SWAP1 PUSH2 0x1404 JUMP JUMPDEST PUSH1 0x1 PUSH1 0x1 PUSH1 0xA0 SHL SUB AND DUP2 MSTORE PUSH1 0x20 DUP2 ADD SWAP2 SWAP1 SWAP2 MSTORE PUSH1 0x40 ADD PUSH1 0x0 KECCAK256 DUP1 SLOAD PUSH1 0xFF NOT AND SWAP2 ISZERO ISZERO SWAP2 SWAP1 SWAP2 OR SWAP1 SSTORE DUP4 DUP4 DUP3 DUP2 DUP2 LT PUSH2 0x79D JUMPI PUSH2 0x79D PUSH2 0x166B JUMP JUMPDEST SWAP1 POP PUSH1 0x20 MUL ADD PUSH1 0x20 DUP2 ADD SWAP1 PUSH2 0x7B2 SWAP2 SWAP1 PUSH2 0x1404 JUMP JUMPDEST PUSH1 0x1 PUSH1 0x1 PUSH1 0xA0 SHL SUB AND PUSH32 0x2BD9EA086356B3E60459594F10458FF8DAE3D16FEF711BB3DD479A06F745A246 DUP4 PUSH1 0x40 MLOAD PUSH2 0x7EE SWAP2 ISZERO ISZERO DUP2 MSTORE PUSH1 0x20 ADD SWAP1 JUMP JUMPDEST PUSH1 0x40 MLOAD DUP1 SWAP2 SUB SWAP1 LOG2 PUSH1 0x1 ADD PUSH2 0x72F JUMP JUMPDEST PUSH2 0x525 CALLER DUP4 DUP4 PUSH2 0xC03 JUMP JUMPDEST PUSH2 0x814 DUP5 DUP5 DUP5 PUSH2 0x529 JUMP JUMPDEST PUSH2 0x5B3 CALLER DUP6 DUP6 DUP6 DUP6 PUSH2 0xCA2 JUMP JUMPDEST PUSH1 0x60 PUSH2 0x82C DUP3 PUSH2 0x902 JUMP JUMPDEST POP PUSH1 0x0 PUSH2 0x844 PUSH1 0x40 DUP1 MLOAD PUSH1 0x20 DUP2 ADD SWAP1 SWAP2 MSTORE PUSH1 0x0 DUP2 MSTORE SWAP1 JUMP JUMPDEST SWAP1 POP PUSH1 0x0 DUP2 MLOAD GT PUSH2 0x864 JUMPI PUSH1 0x40 MLOAD DUP1 PUSH1 0x20 ADD PUSH1 0x40 MSTORE DUP1 PUSH1 0x0 DUP2 MSTORE POP PUSH2 0x88F JUMP JUMPDEST DUP1 PUSH2 0x86E DUP5 PUSH2 0xDCD JUMP JUMPDEST PUSH1 0x40 MLOAD PUSH1 0x20 ADD PUSH2 0x87F SWAP3 SWAP2 SWAP1 PUSH2 0x1681 JUMP JUMPDEST PUSH1 0x40 MLOAD PUSH1 0x20 DUP2 DUP4 SUB SUB DUP2 MSTORE SWAP1 PUSH1 0x40 MSTORE JUMPDEST SWAP4 SWAP3 POP POP POP JUMP JUMPDEST PUSH1 0x1 PUSH1 0x1 PUSH1 0xA0 SHL SUB SWAP2 DUP3 AND PUSH1 0x0 SWAP1 DUP2 MSTORE PUSH1 0x5 PUSH1 0x20 SWAP1 DUP2 MSTORE PUSH1 0x40 DUP1 DUP4 KECCAK256 SWAP4 SWAP1 SWAP5 AND DUP3 MSTORE SWAP2 SWAP1 SWAP2 MSTORE KECCAK256 SLOAD PUSH1 0xFF AND SWAP1 JUMP JUMPDEST PUSH2 0x8CC PUSH2 0xAD2 JUMP JUMPDEST PUSH1 0x1 PUSH1 0x1 PUSH1 0xA0 SHL SUB DUP2 AND PUSH2 0x8F6 JUMPI PUSH1 0x40 MLOAD PUSH4 0x1E4FBDF7 PUSH1 0xE0 SHL DUP2 MSTORE PUSH1 0x0 PUSH1 0x4 DUP3 ADD MSTORE PUSH1 0x24 ADD PUSH2 0x54F JUMP JUMPDEST PUSH2 0x8FF DUP2 PUSH2 0xB6E JUMP JUMPDEST POP JUMP JUMPDEST PUSH1 0x0 DUP2 DUP2 MSTORE PUSH1 0x2 PUSH1 0x20 MSTORE PUSH1 0x40 DUP2 KECCAK256 SLOAD PUSH1 0x1 PUSH1 0x1 PUSH1 0xA0 SHL SUB AND DUP1 PUSH2 0x459 JUMPI PUSH1 0x40 MLOAD PUSH4 0x7E273289 PUSH1 0xE0 SHL DUP2 MSTORE PUSH1 0x4 DUP2 ADD DUP5 SWAP1 MSTORE PUSH1 0x24 ADD PUSH2 0x54F JUMP JUMPDEST PUSH2 0x634 DUP4 DUP4 DUP4 PUSH1 0x1 PUSH2 0xE60 JUMP JUMPDEST PUSH1 0x0 PUSH2 0x952 PUSH2 0xF66 JUMP JUMPDEST PUSH1 0x0 DUP4 DUP2 MSTORE PUSH1 0x2 PUSH1 0x20 MSTORE PUSH1 0x40 SWAP1 KECCAK256 SLOAD PUSH1 0x1 PUSH1 0x1 PUSH1 0xA0 SHL SUB AND DUP1 ISZERO PUSH2 0xA9B JUMPI PUSH1 0x8 SLOAD PUSH1 0xA SLOAD PUSH2 0x980 SWAP1 TIMESTAMP PUSH2 0x16B0 JUMP JUMPDEST LT PUSH2 0x9C2 JUMPI PUSH1 0x40 MLOAD PUSH3 0x461BCD PUSH1 0xE5 SHL DUP2 MSTORE PUSH1 0x20 PUSH1 0x4 DUP3 ADD MSTORE PUSH1 0x12 PUSH1 0x24 DUP3 ADD MSTORE PUSH18 0x1399585C88195D995B9D08189B1BD8DAD959 PUSH1 0x72 SHL PUSH1 0x44 DUP3 ADD MSTORE PUSH1 0x64 ADD PUSH2 0x54F JUMP JUMPDEST PUSH1 0x9 SLOAD PUSH1 0x0 DUP6 DUP2 MSTORE PUSH1 0xB PUSH1 0x20 MSTORE PUSH1 0x40 SWAP1 KECCAK256 SLOAD PUSH2 0x9DE SWAP1 TIMESTAMP PUSH2 0x16C3 JUMP JUMPDEST LT ISZERO PUSH2 0xA17 JUMPI PUSH1 0x40 MLOAD PUSH3 0x461BCD PUSH1 0xE5 SHL DUP2 MSTORE PUSH1 0x20 PUSH1 0x4 DUP3 ADD MSTORE PUSH1 0x8 PUSH1 0x24 DUP3 ADD MSTORE PUSH8 0x21B7B7B63237BBB7 PUSH1 0xC1 SHL PUSH1 0x44 DUP3 ADD MSTORE PUSH1 0x64 ADD PUSH2 0x54F JUMP JUMPDEST PUSH1 0x1 PUSH1 0x1 PUSH1 0xA0 SHL SUB DUP2 AND PUSH1 0x0 SWAP1 DUP2 MSTORE PUSH1 0xC PUSH1 0x20 MSTORE PUSH1 0x40 SWAP1 KECCAK256 SLOAD PUSH1 0xFF AND DUP1 ISZERO PUSH2 0xA57 JUMPI POP PUSH1 0x1 PUSH1 0x1 PUSH1 0xA0 SHL SUB DUP6 AND PUSH1 0x0 SWAP1 DUP2 MSTORE PUSH1 0xC PUSH1 0x20 MSTORE PUSH1 0x40 SWAP1 KECCAK256 SLOAD PUSH1 0xFF AND JUMPDEST PUSH2 0xA96 JUMPI PUSH1 0x40 MLOAD PUSH3 0x461BCD PUSH1 0xE5 SHL DUP2 MSTORE PUSH1 0x20 PUSH1 0x4 DUP3 ADD MSTORE PUSH1 0x10 PUSH1 0x24 DUP3 ADD MSTORE PUSH16 0x12D650CBD41BD4081C995C5D5A5C9959 PUSH1 0x82 SHL PUSH1 0x44 DUP3 ADD MSTORE PUSH1 0x64 ADD PUSH2 0x54F JUMP JUMPDEST PUSH2 0xAAD JUMP JUMPDEST PUSH1 0x0 DUP5 DUP2 MSTORE PUSH1 0xD PUSH1 0x20 MSTORE PUSH1 0x40 SWAP1 KECCAK256 TIMESTAMP SWAP1 SSTORE JUMPDEST PUSH1 0x0 DUP5 DUP2 MSTORE PUSH1 0xB PUSH1 0x20 MSTORE PUSH1 0x40 SWAP1 KECCAK256 TIMESTAMP SWAP1 SSTORE PUSH2 0xAC9 DUP6 DUP6 DUP6 PUSH2 0xF91 JUMP JUMPDEST SWAP6 SWAP5 POP POP POP POP POP JUMP JUMPDEST PUSH1 0x6 SLOAD PUSH1 0x1 PUSH1 0x1 PUSH1 0xA0 SHL SUB AND CALLER EQ PUSH2 0x5C9 JUMPI PUSH1 0x40 MLOAD PUSH4 0x118CDAA7 PUSH1 0xE0 SHL DUP2 MSTORE CALLER PUSH1 0x4 DUP3 ADD MSTORE PUSH1 0x24 ADD PUSH2 0x54F JUMP JUMPDEST PUSH2 0xB07 PUSH2 0x108A JUMP JUMPDEST PUSH1 0x6 DUP1 SLOAD PUSH1 0xFF PUSH1 0xA0 SHL NOT AND SWAP1 SSTORE PUSH32 0x5DB9EE0A495BF2E6FF9C91A7834C1BA4FDD244A5E8AA4E537BD38AEAE4B073AA CALLER JUMPDEST PUSH1 0x40 MLOAD PUSH1 0x1 PUSH1 0x1 PUSH1 0xA0 SHL SUB SWAP1 SWAP2 AND DUP2 MSTORE PUSH1 0x20 ADD PUSH1 0x40 MLOAD DUP1 SWAP2 SUB SWAP1 LOG1 JUMP JUMPDEST PUSH2 0x525 DUP3 DUP3 PUSH1 0x40 MLOAD DUP1 PUSH1 0x20 ADD PUSH1 0x40 MSTORE DUP1 PUSH1 0x0 DUP2 MSTORE POP PUSH2 0x10B4 JUMP JUMPDEST PUSH1 0x6 DUP1 SLOAD PUSH1 0x1 PUSH1 0x1 PUSH1 0xA0 SHL SUB DUP4 DUP2 AND PUSH1 0x1 PUSH1 0x1 PUSH1 0xA0 SHL SUB NOT DUP4 AND DUP2 OR SWAP1 SWAP4 SSTORE PUSH1 0x40 MLOAD SWAP2 AND SWAP2 SWAP1 DUP3 SWAP1 PUSH32 0x8BE0079C531659141344CD1FD0A4F28419497F9722A3DAAFE3B4186F6B6457E0 SWAP1 PUSH1 0x0 SWAP1 LOG3 POP POP JUMP JUMPDEST PUSH2 0xBC8 PUSH2 0xF66 JUMP JUMPDEST PUSH1 0x6 DUP1 SLOAD PUSH1 0xFF PUSH1 0xA0 SHL NOT AND PUSH1 0x1 PUSH1 0xA0 SHL OR SWAP1 SSTORE PUSH32 0x62E78CEA01BEE320CD4E420270B5EA74000D11B0C9F74754EBDBFC544B05A258 PUSH2 0xB37 CALLER SWAP1 JUMP JUMPDEST PUSH1 0x1 PUSH1 0x1 PUSH1 0xA0 SHL SUB DUP3 AND PUSH2 0xC35 JUMPI PUSH1 0x40 MLOAD PUSH4 0xB611743 PUSH1 0xE3 SHL DUP2 MSTORE PUSH1 0x1 PUSH1 0x1 PUSH1 0xA0 SHL SUB DUP4 AND PUSH1 0x4 DUP3 ADD MSTORE PUSH1 0x24 ADD PUSH2 0x54F JUMP JUMPDEST PUSH1 0x1 PUSH1 0x1 PUSH1 0xA0 SHL SUB DUP4 DUP2 AND PUSH1 0x0 DUP2 DUP2 MSTORE PUSH1 0x5 PUSH1 0x20 SWAP1 DUP2 MSTORE PUSH1 0x40 DUP1 DUP4 KECCAK256 SWAP5 DUP8 AND DUP1 DUP5 MSTORE SWAP5 DUP3 MSTORE SWAP2 DUP3 SWAP1 KECCAK256 DUP1 SLOAD PUSH1 0xFF NOT AND DUP7 ISZERO ISZERO SWAP1 DUP2 OR SWAP1 SWAP2 SSTORE SWAP2 MLOAD SWAP2 DUP3 MSTORE PUSH32 0x17307EAB39AB6107E8899845AD3D59BD9653F200F220920489CA2B5937696C31 SWAP2 ADD PUSH1 0x40 MLOAD DUP1 SWAP2 SUB SWAP1 LOG3 POP POP POP JUMP JUMPDEST PUSH1 0x1 PUSH1 0x1 PUSH1 0xA0 SHL SUB DUP4 AND EXTCODESIZE ISZERO PUSH2 0xDC6 JUMPI PUSH1 0x40 MLOAD PUSH4 0xA85BD01 PUSH1 0xE1 SHL DUP2 MSTORE PUSH1 0x1 PUSH1 0x1 PUSH1 0xA0 SHL SUB DUP5 AND SWAP1 PUSH4 0x150B7A02 SWAP1 PUSH2 0xCE4 SWAP1 DUP9 SWAP1 DUP9 SWAP1 DUP8 SWAP1 DUP8 SWAP1 PUSH1 0x4 ADD PUSH2 0x16D6 JUMP JUMPDEST PUSH1 0x20 PUSH1 0x40 MLOAD DUP1 DUP4 SUB DUP2 PUSH1 0x0 DUP8 GAS CALL SWAP3 POP POP POP DUP1 ISZERO PUSH2 0xD1F JUMPI POP PUSH1 0x40 DUP1 MLOAD PUSH1 0x1F RETURNDATASIZE SWAP1 DUP2 ADD PUSH1 0x1F NOT AND DUP3 ADD SWAP1 SWAP3 MSTORE PUSH2 0xD1C SWAP2 DUP2 ADD SWAP1 PUSH2 0x1713 JUMP JUMPDEST PUSH1 0x1 JUMPDEST PUSH2 0xD88 JUMPI RETURNDATASIZE DUP1 DUP1 ISZERO PUSH2 0xD4D JUMPI PUSH1 0x40 MLOAD SWAP2 POP PUSH1 0x1F NOT PUSH1 0x3F RETURNDATASIZE ADD AND DUP3 ADD PUSH1 0x40 MSTORE RETURNDATASIZE DUP3 MSTORE RETURNDATASIZE PUSH1 0x0 PUSH1 0x20 DUP5 ADD RETURNDATACOPY PUSH2 0xD52 JUMP JUMPDEST PUSH1 0x60 SWAP2 POP JUMPDEST POP DUP1 MLOAD PUSH1 0x0 SUB PUSH2 0xD80 JUMPI PUSH1 0x40 MLOAD PUSH4 0x32505749 PUSH1 0xE1 SHL DUP2 MSTORE PUSH1 0x1 PUSH1 0x1 PUSH1 0xA0 SHL SUB DUP6 AND PUSH1 0x4 DUP3 ADD MSTORE PUSH1 0x24 ADD PUSH2 0x54F JUMP JUMPDEST DUP1 MLOAD PUSH1 0x20 DUP3 ADD REVERT JUMPDEST PUSH1 0x1 PUSH1 0x1 PUSH1 0xE0 SHL SUB NOT DUP2 AND PUSH4 0xA85BD01 PUSH1 0xE1 SHL EQ PUSH2 0xDC4 JUMPI PUSH1 0x40 MLOAD PUSH4 0x32505749 PUSH1 0xE1 SHL DUP2 MSTORE PUSH1 0x1 PUSH1 0x1 PUSH1 0xA0 SHL SUB DUP6 AND PUSH1 0x4 DUP3 ADD MSTORE PUSH1 0x24 ADD PUSH2 0x54F JUMP JUMPDEST POP JUMPDEST POP POP POP POP POP JUMP JUMPDEST PUSH1 0x60 PUSH1 0x0 PUSH2 0xDDA DUP4 PUSH2 0x10CC JUMP JUMPDEST PUSH1 0x1 ADD SWAP1 POP PUSH1 0x0 DUP2 PUSH8 0xFFFFFFFFFFFFFFFF DUP2 GT ISZERO PUSH2 0xDFA JUMPI PUSH2 0xDFA PUSH2 0x14E6 JUMP JUMPDEST PUSH1 0x40 MLOAD SWAP1 DUP1 DUP3 MSTORE DUP1 PUSH1 0x1F ADD PUSH1 0x1F NOT AND PUSH1 0x20 ADD DUP3 ADD PUSH1 0x40 MSTORE DUP1 ISZERO PUSH2 0xE24 JUMPI PUSH1 0x20 DUP3 ADD DUP2 DUP1 CALLDATASIZE DUP4 CALLDATACOPY ADD SWAP1 POP JUMPDEST POP SWAP1 POP DUP2 DUP2 ADD PUSH1 0x20 ADD JUMPDEST PUSH1 0x0 NOT ADD PUSH16 0x181899199A1A9B1B9C1CB0B131B232B3 PUSH1 0x81 SHL PUSH1 0xA DUP7 MOD BYTE DUP2 MSTORE8 PUSH1 0xA DUP6 DIV SWAP5 POP DUP5 PUSH2 0xE2E JUMPI POP SWAP4 SWAP3 POP POP POP JUMP JUMPDEST DUP1 DUP1 PUSH2 0xE74 JUMPI POP PUSH1 0x1 PUSH1 0x1 PUSH1 0xA0 SHL SUB DUP3 AND ISZERO ISZERO JUMPDEST ISZERO PUSH2 0xF36 JUMPI PUSH1 0x0 PUSH2 0xE84 DUP5 PUSH2 0x902 JUMP JUMPDEST SWAP1 POP PUSH1 0x1 PUSH1 0x1 PUSH1 0xA0 SHL SUB DUP4 AND ISZERO DUP1 ISZERO SWAP1 PUSH2 0xEB0 JUMPI POP DUP3 PUSH1 0x1 PUSH1 0x1 PUSH1 0xA0 SHL SUB AND DUP2 PUSH1 0x1 PUSH1 0x1 PUSH1 0xA0 SHL SUB AND EQ ISZERO JUMPDEST DUP1 ISZERO PUSH2 0xEC3 JUMPI POP PUSH2 0xEC1 DUP2 DUP5 PUSH2 0x896 JUMP JUMPDEST ISZERO JUMPDEST ISZERO PUSH2 0xEEC JUMPI PUSH1 0x40 MLOAD PUSH4 0xA9FBF51F PUSH1 0xE0 SHL DUP2 MSTORE PUSH1 0x1 PUSH1 0x1 PUSH1 0xA0 SHL SUB DUP5 AND PUSH1 0x4 DUP3 ADD MSTORE PUSH1 0x24 ADD PUSH2 0x54F JUMP JUMPDEST DUP2 ISZERO PUSH2 0xF34 JUMPI DUP4 DUP6 PUSH1 0x1 PUSH1 0x1 PUSH1 0xA0 SHL SUB AND DUP3 PUSH1 0x1 PUSH1 0x1 PUSH1 0xA0 SHL SUB AND PUSH32 0x8C5BE1E5EBEC7D5BD14F71427D1E84F3DD0314C0F7B2291E5B200AC8C7C3B925 PUSH1 0x40 MLOAD PUSH1 0x40 MLOAD DUP1 SWAP2 SUB SWAP1 LOG4 JUMPDEST POP JUMPDEST POP POP PUSH1 0x0 SWAP1 DUP2 MSTORE PUSH1 0x4 PUSH1 0x20 MSTORE PUSH1 0x40 SWAP1 KECCAK256 DUP1 SLOAD PUSH1 0x1 PUSH1 0x1 PUSH1 0xA0 SHL SUB NOT AND PUSH1 0x1 PUSH1 0x1 PUSH1 0xA0 SHL SUB SWAP3 SWAP1 SWAP3 AND SWAP2 SWAP1 SWAP2 OR SWAP1 SSTORE JUMP JUMPDEST PUSH1 0x6 SLOAD PUSH1 0x1 PUSH1 0xA0 SHL SWAP1 DIV PUSH1 0xFF AND ISZERO PUSH2 0x5C9 JUMPI PUSH1 0x40 MLOAD PUSH4 0xD93C0665 PUSH1 0xE0 SHL DUP2 MSTORE PUSH1 0x4 ADD PUSH1 0x40 MLOAD DUP1 SWAP2 SUB SWAP1 REVERT JUMPDEST PUSH1 0x0 DUP3 DUP2 MSTORE PUSH1 0x2 PUSH1 0x20 MSTORE PUSH1 0x40 DUP2 KECCAK256 SLOAD PUSH1 0x1 PUSH1 0x1 PUSH1 0xA0 SHL SUB SWAP1 DUP2 AND SWAP1 DUP4 AND ISZERO PUSH2 0xFBE JUMPI PUSH2 0xFBE DUP2 DUP5 DUP7 PUSH2 0x11A4 JUMP JUMPDEST PUSH1 0x1 PUSH1 0x1 PUSH1 0xA0 SHL SUB DUP2 AND ISZERO PUSH2 0xFFC JUMPI PUSH2 0xFDB PUSH1 0x0 DUP6 PUSH1 0x0 DUP1 PUSH2 0xE60 JUMP JUMPDEST PUSH1 0x1 PUSH1 0x1 PUSH1 0xA0 SHL SUB DUP2 AND PUSH1 0x0 SWAP1 DUP2 MSTORE PUSH1 0x3 PUSH1 0x20 MSTORE PUSH1 0x40 SWAP1 KECCAK256 DUP1 SLOAD PUSH1 0x0 NOT ADD SWAP1 SSTORE JUMPDEST PUSH1 0x1 PUSH1 0x1 PUSH1 0xA0 SHL SUB DUP6 AND ISZERO PUSH2 0x102B JUMPI PUSH1 0x1 PUSH1 0x1 PUSH1 0xA0 SHL SUB DUP6 AND PUSH1 0x0 SWAP1 DUP2 MSTORE PUSH1 0x3 PUSH1 0x20 MSTORE PUSH1 0x40 SWAP1 KECCAK256 DUP1 SLOAD PUSH1 0x1 ADD SWAP1 SSTORE JUMPDEST PUSH1 0x0 DUP5 DUP2 MSTORE PUSH1 0x2 PUSH1 0x20 MSTORE PUSH1 0x40 DUP1 DUP3 KECCAK256 DUP1 SLOAD PUSH1 0x1 PUSH1 0x1 PUSH1 0xA0 SHL SUB NOT AND PUSH1 0x1 PUSH1 0x1 PUSH1 0xA0 SHL SUB DUP10 DUP2 AND SWAP2 DUP3 OR SWAP1 SWAP3 SSTORE SWAP2 MLOAD DUP8 SWAP4 SWAP2 DUP6 AND SWAP2 PUSH32 0xDDF252AD1BE2C89B69C2B068FC378DAA952BA7F163C4A11628F55A4DF523B3EF SWAP2 LOG4 SWAP5 SWAP4 POP POP POP POP JUMP JUMPDEST PUSH1 0x6 SLOAD PUSH1 0x1 PUSH1 0xA0 SHL SWAP1 DIV PUSH1 0xFF AND PUSH2 0x5C9 JUMPI PUSH1 0x40 MLOAD PUSH4 0x8DFC202B PUSH1 0xE0 SHL DUP2 MSTORE PUSH1 0x4 ADD PUSH1 0x40 MLOAD DUP1 SWAP2 SUB SWAP1 REVERT JUMPDEST PUSH2 0x10BE DUP4 DUP4 PUSH2 0x1208 JUMP JUMPDEST PUSH2 0x634 CALLER PUSH1 0x0 DUP6 DUP6 DUP6 PUSH2 0xCA2 JUMP JUMPDEST PUSH1 0x0 DUP1 PUSH19 0x184F03E93FF9F4DAA797ED6E38ED64BF6A1F01 PUSH1 0x40 SHL DUP4 LT PUSH2 0x110B JUMPI PUSH19 0x184F03E93FF9F4DAA797ED6E38ED64BF6A1F01 PUSH1 0x40 SHL DUP4 DIV SWAP3 POP PUSH1 0x40 ADD JUMPDEST PUSH14 0x4EE2D6D415B85ACEF8100000000 DUP4 LT PUSH2 0x1137 JUMPI PUSH14 0x4EE2D6D415B85ACEF8100000000 DUP4 DIV SWAP3 POP PUSH1 0x20 ADD JUMPDEST PUSH7 0x2386F26FC10000 DUP4 LT PUSH2 0x1155 JUMPI PUSH7 0x2386F26FC10000 DUP4 DIV SWAP3 POP PUSH1 0x10 ADD JUMPDEST PUSH4 0x5F5E100 DUP4 LT PUSH2 0x116D JUMPI PUSH4 0x5F5E100 DUP4 DIV SWAP3 POP PUSH1 0x8 ADD JUMPDEST PUSH2 0x2710 DUP4 LT PUSH2 0x1181 JUMPI PUSH2 0x2710 DUP4 DIV SWAP3 POP PUSH1 0x4 ADD JUMPDEST PUSH1 0x64 DUP4 LT PUSH2 0x1193 JUMPI PUSH1 0x64 DUP4 DIV SWAP3 POP PUSH1 0x2 ADD JUMPDEST PUSH1 0xA DUP4 LT PUSH2 0x459 JUMPI PUSH1 0x1 ADD SWAP3 SWAP2 POP POP JUMP JUMPDEST PUSH2 0x11AF DUP4 DUP4 DUP4 PUSH2 0x126D JUMP JUMPDEST PUSH2 0x634 JUMPI PUSH1 0x1 PUSH1 0x1 PUSH1 0xA0 SHL SUB DUP4 AND PUSH2 0x11DD JUMPI PUSH1 0x40 MLOAD PUSH4 0x7E273289 PUSH1 0xE0 SHL DUP2 MSTORE PUSH1 0x4 DUP2 ADD DUP3 SWAP1 MSTORE PUSH1 0x24 ADD PUSH2 0x54F JUMP JUMPDEST PUSH1 0x40 MLOAD PUSH4 0x177E802F PUSH1 0xE0 SHL DUP2 MSTORE PUSH1 0x1 PUSH1 0x1 PUSH1 0xA0 SHL SUB DUP4 AND PUSH1 0x4 DUP3 ADD MSTORE PUSH1 0x24 DUP2 ADD DUP3 SWAP1 MSTORE PUSH1 0x44 ADD PUSH2 0x54F JUMP JUMPDEST PUSH1 0x1 PUSH1 0x1 PUSH1 0xA0 SHL SUB DUP3 AND PUSH2 0x1232 JUMPI PUSH1 0x40 MLOAD PUSH4 0x32505749 PUSH1 0xE1 SHL DUP2 MSTORE PUSH1 0x0 PUSH1 0x4 DUP3 ADD MSTORE PUSH1 0x24 ADD PUSH2 0x54F JUMP JUMPDEST PUSH1 0x0 PUSH2 0x1240 DUP4 DUP4 PUSH1 0x0 PUSH2 0x948 JUMP JUMPDEST SWAP1 POP PUSH1 0x1 PUSH1 0x1 PUSH1 0xA0 SHL SUB DUP2 AND ISZERO PUSH2 0x634 JUMPI PUSH1 0x40 MLOAD PUSH4 0x39E35637 PUSH1 0xE1 SHL DUP2 MSTORE PUSH1 0x0 PUSH1 0x4 DUP3 ADD MSTORE PUSH1 0x24 ADD PUSH2 0x54F JUMP JUMPDEST PUSH1 0x0 PUSH1 0x1 PUSH1 0x1 PUSH1 0xA0 SHL SUB DUP4 AND ISZERO DUP1 ISZERO SWAP1 PUSH2 0x12CB JUMPI POP DUP3 PUSH1 0x1 PUSH1 0x1 PUSH1 0xA0 SHL SUB AND DUP5 PUSH1 0x1 PUSH1 0x1 PUSH1 0xA0 SHL SUB AND EQ DUP1 PUSH2 0x12A7 JUMPI POP PUSH2 0x12A7 DUP5 DUP5 PUSH2 0x896 JUMP JUMPDEST DUP1 PUSH2 0x12CB JUMPI POP PUSH1 0x0 DUP3 DUP2 MSTORE PUSH1 0x4 PUSH1 0x20 MSTORE PUSH1 0x40 SWAP1 KECCAK256 SLOAD PUSH1 0x1 PUSH1 0x1 PUSH1 0xA0 SHL SUB DUP5 DUP2 AND SWAP2 AND EQ JUMPDEST SWAP5 SWAP4 POP POP POP POP JUMP JUMPDEST PUSH1 0x1 PUSH1 0x1 PUSH1 0xE0 SHL SUB NOT DUP2 AND DUP2 EQ PUSH2 0x8FF JUMPI PUSH1 0x0 DUP1 REVERT JUMPDEST PUSH1 0x0 PUSH1 0x20 DUP3 DUP5 SUB SLT ISZERO PUSH2 0x12FB JUMPI PUSH1 0x0 DUP1 REVERT JUMPDEST DUP2 CALLDATALOAD PUSH2 0x88F DUP2 PUSH2 0x12D3 JUMP JUMPDEST PUSH1 0x0 JUMPDEST DUP4 DUP2 LT ISZERO PUSH2 0x1321 JUMPI DUP2 DUP2 ADD MLOAD DUP4 DUP3 ADD MSTORE PUSH1 0x20 ADD PUSH2 0x1309 JUMP JUMPDEST POP POP PUSH1 0x0 SWAP2 ADD MSTORE JUMP JUMPDEST PUSH1 0x0 DUP2 MLOAD DUP1 DUP5 MSTORE PUSH2 0x1342 DUP2 PUSH1 0x20 DUP7 ADD PUSH1 0x20 DUP7 ADD PUSH2 0x1306 JUMP JUMPDEST PUSH1 0x1F ADD PUSH1 0x1F NOT AND SWAP3 SWAP1 SWAP3 ADD PUSH1 0x20 ADD SWAP3 SWAP2 POP POP JUMP JUMPDEST PUSH1 0x20 DUP2 MSTORE PUSH1 0x0 PUSH2 0x88F PUSH1 0x20 DUP4 ADD DUP5 PUSH2 0x132A JUMP JUMPDEST PUSH1 0x0 PUSH1 0x20 DUP3 DUP5 SUB SLT ISZERO PUSH2 0x137B JUMPI PUSH1 0x0 DUP1 REVERT JUMPDEST POP CALLDATALOAD SWAP2 SWAP1 POP JUMP JUMPDEST DUP1 CALLDATALOAD PUSH1 0x1 PUSH1 0x1 PUSH1 0xA0 SHL SUB DUP2 AND DUP2 EQ PUSH2 0x1399 JUMPI PUSH1 0x0 DUP1 REVERT JUMPDEST SWAP2 SWAP1 POP JUMP JUMPDEST PUSH1 0x0 DUP1 PUSH1 0x40 DUP4 DUP6 SUB SLT ISZERO PUSH2 0x13B1 JUMPI PUSH1 0x0 DUP1 REVERT JUMPDEST PUSH2 0x13BA DUP4 PUSH2 0x1382 JUMP JUMPDEST SWAP5 PUSH1 0x20 SWAP4 SWAP1 SWAP4 ADD CALLDATALOAD SWAP4 POP POP POP JUMP JUMPDEST PUSH1 0x0 DUP1 PUSH1 0x0 PUSH1 0x60 DUP5 DUP7 SUB SLT ISZERO PUSH2 0x13DD JUMPI PUSH1 0x0 DUP1 REVERT JUMPDEST PUSH2 0x13E6 DUP5 PUSH2 0x1382 JUMP JUMPDEST SWAP3 POP PUSH2 0x13F4 PUSH1 0x20 DUP6 ADD PUSH2 0x1382 JUMP JUMPDEST SWAP2 POP PUSH1 0x40 DUP5 ADD CALLDATALOAD SWAP1 POP SWAP3 POP SWAP3 POP SWAP3 JUMP JUMPDEST PUSH1 0x0 PUSH1 0x20 DUP3 DUP5 SUB SLT ISZERO PUSH2 0x1416 JUMPI PUSH1 0x0 DUP1 REVERT JUMPDEST PUSH2 0x88F DUP3 PUSH2 0x1382 JUMP JUMPDEST DUP1 CALLDATALOAD DUP1 ISZERO ISZERO DUP2 EQ PUSH2 0x1399 JUMPI PUSH1 0x0 DUP1 REVERT JUMPDEST PUSH1 0x0 DUP1 PUSH1 0x40 DUP4 DUP6 SUB SLT ISZERO PUSH2 0x1442 JUMPI PUSH1 0x0 DUP1 REVERT JUMPDEST PUSH2 0x144B DUP4 PUSH2 0x1382 JUMP JUMPDEST SWAP2 POP PUSH2 0x1459 PUSH1 0x20 DUP5 ADD PUSH2 0x141F JUMP JUMPDEST SWAP1 POP SWAP3 POP SWAP3 SWAP1 POP JUMP JUMPDEST PUSH1 0x0 DUP1 PUSH1 0x0 PUSH1 0x40 DUP5 DUP7 SUB SLT ISZERO PUSH2 0x1477 JUMPI PUSH1 0x0 DUP1 REVERT JUMPDEST DUP4 CALLDATALOAD PUSH8 0xFFFFFFFFFFFFFFFF DUP1 DUP3 GT ISZERO PUSH2 0x148F JUMPI PUSH1 0x0 DUP1 REVERT JUMPDEST DUP2 DUP7 ADD SWAP2 POP DUP7 PUSH1 0x1F DUP4 ADD SLT PUSH2 0x14A3 JUMPI PUSH1 0x0 DUP1 REVERT JUMPDEST DUP2 CALLDATALOAD DUP2 DUP2 GT ISZERO PUSH2 0x14B2 JUMPI PUSH1 0x0 DUP1 REVERT JUMPDEST DUP8 PUSH1 0x20 DUP3 PUSH1 0x5 SHL DUP6 ADD ADD GT ISZERO PUSH2 0x14C7 JUMPI PUSH1 0x0 DUP1 REVERT JUMPDEST PUSH1 0x20 SWAP3 DUP4 ADD SWAP6 POP SWAP4 POP PUSH2 0x14DD SWAP2 DUP7 ADD SWAP1 POP PUSH2 0x141F JUMP JUMPDEST SWAP1 POP SWAP3 POP SWAP3 POP SWAP3 JUMP JUMPDEST PUSH4 0x4E487B71 PUSH1 0xE0 SHL PUSH1 0x0 MSTORE PUSH1 0x41 PUSH1 0x4 MSTORE PUSH1 0x24 PUSH1 0x0 REVERT JUMPDEST PUSH1 0x0 DUP1 PUSH1 0x0 DUP1 PUSH1 0x80 DUP6 DUP8 SUB SLT ISZERO PUSH2 0x1512 JUMPI PUSH1 0x0 DUP1 REVERT JUMPDEST PUSH2 0x151B DUP6 PUSH2 0x1382 JUMP JUMPDEST SWAP4 POP PUSH2 0x1529 PUSH1 0x20 DUP7 ADD PUSH2 0x1382 JUMP JUMPDEST SWAP3 POP PUSH1 0x40 DUP6 ADD CALLDATALOAD SWAP2 POP PUSH1 0x60 DUP6 ADD CALLDATALOAD PUSH8 0xFFFFFFFFFFFFFFFF DUP1 DUP3 GT ISZERO PUSH2 0x154D JUMPI PUSH1 0x0 DUP1 REVERT JUMPDEST DUP2 DUP8 ADD SWAP2 POP DUP8 PUSH1 0x1F DUP4 ADD SLT PUSH2 0x1561 JUMPI PUSH1 0x0 DUP1 REVERT JUMPDEST DUP2 CALLDATALOAD DUP2 DUP2 GT ISZERO PUSH2 0x1573 JUMPI PUSH2 0x1573 PUSH2 0x14E6 JUMP JUMPDEST PUSH1 0x40 MLOAD PUSH1 0x1F DUP3 ADD PUSH1 0x1F NOT SWAP1 DUP2 AND PUSH1 0x3F ADD AND DUP2 ADD SWAP1 DUP4 DUP3 GT DUP2 DUP4 LT OR ISZERO PUSH2 0x159B JUMPI PUSH2 0x159B PUSH2 0x14E6 JUMP JUMPDEST DUP2 PUSH1 0x40 MSTORE DUP3 DUP2 MSTORE DUP11 PUSH1 0x20 DUP5 DUP8 ADD ADD GT ISZERO PUSH2 0x15B4 JUMPI PUSH1 0x0 DUP1 REVERT JUMPDEST DUP3 PUSH1 0x20 DUP7 ADD PUSH1 0x20 DUP4 ADD CALLDATACOPY PUSH1 0x0 PUSH1 0x20 DUP5 DUP4 ADD ADD MSTORE DUP1 SWAP6 POP POP POP POP POP POP SWAP3 SWAP6 SWAP2 SWAP5 POP SWAP3 POP JUMP JUMPDEST PUSH1 0x0 DUP1 PUSH1 0x40 DUP4 DUP6 SUB SLT ISZERO PUSH2 0x15EB JUMPI PUSH1 0x0 DUP1 REVERT JUMPDEST PUSH2 0x15F4 DUP4 PUSH2 0x1382 JUMP JUMPDEST SWAP2 POP PUSH2 0x1459 PUSH1 0x20 DUP5 ADD PUSH2 0x1382 JUMP JUMPDEST PUSH1 0x1 DUP2 DUP2 SHR SWAP1 DUP3 AND DUP1 PUSH2 0x1616 JUMPI PUSH1 0x7F DUP3 AND SWAP2 POP JUMPDEST PUSH1 0x20 DUP3 LT DUP2 SUB PUSH2 0x1636 JUMPI PUSH4 0x4E487B71 PUSH1 0xE0 SHL PUSH1 0x0 MSTORE PUSH1 0x22 PUSH1 0x4 MSTORE PUSH1 0x24 PUSH1 0x0 REVERT JUMPDEST POP SWAP2 SWAP1 POP JUMP JUMPDEST PUSH4 0x4E487B71 PUSH1 0xE0 SHL PUSH1 0x0 MSTORE PUSH1 0x11 PUSH1 0x4 MSTORE PUSH1 0x24 PUSH1 0x0 REVERT JUMPDEST PUSH1 0x0 PUSH1 0x1 DUP3 ADD PUSH2 0x1664 JUMPI PUSH2 0x1664 PUSH2 0x163C JUMP JUMPDEST POP PUSH1 0x1 ADD SWAP1 JUMP JUMPDEST PUSH4 0x4E487B71 PUSH1 0xE0 SHL PUSH1 0x0 MSTORE PUSH1 0x32 PUSH1 0x4 MSTORE PUSH1 0x24 PUSH1 0x0 REVERT JUMPDEST PUSH1 0x0 DUP4 MLOAD PUSH2 0x1693 DUP2 DUP5 PUSH1 0x20 DUP9 ADD PUSH2 0x1306 JUMP JUMPDEST DUP4 MLOAD SWAP1 DUP4 ADD SWAP1 PUSH2 0x16A7 DUP2 DUP4 PUSH1 0x20 DUP9 ADD PUSH2 0x1306 JUMP JUMPDEST ADD SWAP5 SWAP4 POP POP POP POP JUMP JUMPDEST DUP1 DUP3 ADD DUP1 DUP3 GT ISZERO PUSH2 0x459 JUMPI PUSH2 0x459 PUSH2 0x163C JUMP JUMPDEST DUP2 DUP2 SUB DUP2 DUP2 GT ISZERO PUSH2 0x459 JUMPI PUSH2 0x459 PUSH2 0x163C JUMP JUMPDEST PUSH1 0x1 PUSH1 0x1 PUSH1 0xA0 SHL SUB DUP6 DUP2 AND DUP3 MSTORE DUP5 AND PUSH1 0x20 DUP3 ADD MSTORE PUSH1 0x40 DUP2 ADD DUP4 SWAP1 MSTORE PUSH1 0x80 PUSH1 0x60 DUP3 ADD DUP2 SWAP1 MSTORE PUSH1 0x0 SWAP1 PUSH2 0x1709 SWAP1 DUP4 ADD DUP5 PUSH2 0x132A JUMP JUMPDEST SWAP7 SWAP6 POP POP POP POP POP POP JUMP JUMPDEST PUSH1 0x0 PUSH1 0x20 DUP3 DUP5 SUB SLT ISZERO PUSH2 0x1725 JUMPI PUSH1 0x0 DUP1 REVERT JUMPDEST DUP2 MLOAD PUSH2 0x88F DUP2 PUSH2 0x12D3 JUMP INVALID LOG2 PUSH5 0x6970667358 0x22 SLT KECCAK256 DUP15 0xCF 0xF9 PUSH6 0x5238B4047CA5 GASPRICE SHR 0xEA JUMPDEST DUP8 SWAP6 PUSH23 0xEB549666D2BCAC218BD7FB2713BF0664736F6C63430008 XOR STOP CALLER "},"methodIdentifiers":{"allowedKYC(address)":"af171a7f","approve(address,uint256)":"095ea7b3","balanceOf(address)":"70a08231","batchSetKYC(address[],bool)":"9b3c6b22","blockBeforeStartSec()":"7d32e6a4","cooldownSec()":"e7cb9f2d","eventStart()":"202887e7","faceValue()":"44fd9caa","getApproved(uint256)":"081812fc","isApprovedForAll(address,address)":"e985e9c5","lastTransferAt(uint256)":"8bb27e70","mintAt(uint256)":"7046bc67","name()":"06fdde03","owner()":"8da5cb5b","ownerOf(uint256)":"6352211e","pause()":"8456cb59","paused()":"5c975abb","renounceOwnership()":"715018a6","safeMint(address)":"40d097c3","safeTransferFrom(address,address,uint256)":"42842e0e","safeTransferFrom(address,address,uint256,bytes)":"b88d4fde","setApprovalForAll(address,bool)":"a22cb465","setKYC(address,bool)":"5123bacc","supportsInterface(bytes4)":"01ffc9a7","symbol()":"95d89b41","tokenURI(uint256)":"c87b56dd","transferFrom(address,address,uint256)":"23b872dd","transferOwnership(address)":"f2fde38b","unpause()":"3f4ba83a"}}}}}